:0400000023EF3FF0BB
:107E26003F0006005B004F0066006D007C004700C7
:107E36007F00670077007C0039005E0079007100E2
:107E4600260EF66E7E0EF76E000EF86E00EE01F050
:107E560010EE20F00900F5CFEEFFE550E150FAE113
:107E6600000136EF3FF00F0EC16EF00E956E000E5C
:107E7600936E410E216EEE0EE82EFED7212EFCD714
:107E860000D08C808C928C948C9683AE4DEF3FF014
:107E96004FEF3FF051EF3FF007C08AFF83AC56EF3C
:107EA6003FF058EF3FF05AEF3FF005C08AFF83AA34
:107EB6005FEF3FF061EF3FF063EF3FF003C08AFFF3
:107EC60083A868EF3FF06AEF3FF06CEF3FF015C014
:107ED6008AFF410E216EEE0EE82EFED7212EFCD72C
:107EE60000D08C908C828C948C9683AE7DEF3FF084
:107EF6007FEF3FF081EF3FF00DC08AFF83AC86EF46
:107F06003FF088EF3FF08AEF3FF00BC08AFF83AA6D
:107F16008FEF3FF091EF3FF093EF3FF009C08AFFFC
:107F260083A898EF3FF09AEF3FF09CEF3FF017C021
:107F36008AFF410E216EEE0EE82EFED7212EFCD7CB
:107F460000D08C908C928C848C9683AEADEF3FF0F3
:107F5600AFEF3FF0B1EF3FF013C08AFF83ACB6EF4F
:107F66003FF0B8EF3FF0BAEF3FF011C08AFF83AAA7
:107F7600BFEF3FF0C1EF3FF0C3EF3FF00FC08AFF06
:107F860083A8C8EF3FF0CAEF3FF0CCEF3FF019C02F
:107F96008AFF410E216EEE0EE82EFED7212EFCD76B
:107FA60000D08C908C928C948C8683AEDDEF3FF063
:107FB600DFEF3FF0E1EF3FF01FC08AFF83ACE6EF53
:107FC6003FF0E8EF3FF0EAEF3FF001C08AFF83AAF7
:107FD600EFEF3FF0F1EF3FF0F3EF3FF01DC08AFF08
:107FE60083A8F8EF3FF0FAEF3FF03CEF3FF01BC0FD
:0A7FF6008AFF3CEF3FF000EF00F0BF
:020000040020DA
:08000000FFFFFFFFFFFFFFFF00
:020000040030CA
:0E000000000C1F1FFF8385FF0FC00FE00F4095
:00000001FF
